{
  "abi": [
    {
      "inputs": [
        {
          "internalType": "address",
          "name": "_contractOwner",
          "type": "address"
        },
        {
          "internalType": "address",
          "name": "_diamondCutFacet",
          "type": "address"
        },
        {
          "internalType": "string",
          "name": "name",
          "type": "string"
        },
        {
          "internalType": "string",
          "name": "symbol",
          "type": "string"
        }
      ],
      "stateMutability": "payable",
      "type": "constructor"
    },
    {
      "inputs": [],
      "name": "EmptyCalldata",
      "type": "error"
    },
    {
      "inputs": [
        {
          "internalType": "bytes4",
          "name": "selector",
          "type": "bytes4"
        }
      ],
      "name": "ImmutableFunction",
      "type": "error"
    },
    {
      "inputs": [],
      "name": "InValidFacetCutAction",
      "type": "error"
    },
    {
      "inputs": [],
      "name": "InitCallFailed",
      "type": "error"
    },
    {
      "inputs": [],
      "name": "MustBeZeroAddress",
      "type": "error"
    },
    {
      "inputs": [],
      "name": "NoCode",
      "type": "error"
    },
    {
      "inputs": [],
      "name": "NoSelectorsInFacet",
      "type": "error"
    },
    {
      "inputs": [],
      "name": "NoZeroAddress",
      "type": "error"
    },
    {
      "inputs": [],
      "name": "NonEmptyCalldata",
      "type": "error"
    },
    {
      "inputs": [
        {
          "internalType": "bytes4",
          "name": "selector",
          "type": "bytes4"
        }
      ],
      "name": "NonExistentSelector",
      "type": "error"
    },
    {
      "inputs": [
        {
          "internalType": "bytes4",
          "name": "selector",
          "type": "bytes4"
        }
      ],
      "name": "SameSelectorReplacement",
      "type": "error"
    },
    {
      "inputs": [
        {
          "internalType": "bytes4",
          "name": "selector",
          "type": "bytes4"
        }
      ],
      "name": "SelectorExists",
      "type": "error"
    },
    {
      "stateMutability": "payable",
      "type": "fallback"
    },
    {
      "inputs": [],
      "name": "example",
      "outputs": [
        {
          "internalType": "string",
          "name": "",
          "type": "string"
        }
      ],
      "stateMutability": "pure",
      "type": "function"
    },
    {
      "stateMutability": "payable",
      "type": "receive"
    }
  ],
  "bytecode": {
    "object": "0x60806040526040516200215738038062002157833981016040819052620000269162000f47565b6200003c846200018460201b6200011f1760201c565b604080516001808252818301909252600091816020015b60408051606080820183526000808352602083015291810191909152815260200190600190039081620000535750506040805160018082528183019092529192506000919060208083019080368337019050509050631f931c1c60e01b81600081518110620000c657620000c662000fd7565b6001600160e01b031990921660209283029190910182015260408051606081019091526001600160a01b038716815290810160008152602001828152508260008151811062000119576200011962000fd7565b60200260200101819052506200014c826000604051806020016040528060008152506200020860201b620001a21760201c565b83516200016190600390602087019062000dae565b5082516200017790600490602086019062000dae565b5050505050505062001241565b7fc8fcad8db84d3cc18b4c41d551ea0ee66dd599cde068d998e57d5e09332c132080546001600160a01b031981166001600160a01b0384811691821790935560405160008051602062002137833981519152939092169182907f8be0079c531659141344cd1fd0a4f28419497f9722a3daafe3b4186f6b6457e090600090a3505050565b60005b8351811015620003cf5760008482815181106200022c576200022c62000fd7565b60200260200101516020015190506000600281111562000250576200025062000fed565b81600281111562000265576200026562000fed565b03620002c357620002bd85838151811062000284576200028462000fd7565b602002602001015160000151868481518110620002a557620002a562000fd7565b6020026020010151604001516200041e60201b60201c565b620003b9565b6001816002811115620002da57620002da62000fed565b036200033257620002bd858381518110620002f957620002f962000fd7565b6020026020010151600001518684815181106200031a576200031a62000fd7565b602002602001015160400151620005ff60201b60201c565b600281600281111562000349576200034962000fed565b03620003a157620002bd85838151811062000368576200036862000fd7565b60200260200101516000015186848151811062000389576200038962000fd7565b602002602001015160400151620007e760201b60201c565b60405162c5e5d760e31b815260040160405180910390fd5b5080620003c68162001019565b9150506200020b565b507f8faa70878671ccd212d20771b795c50af8fd3ff6cf27f4bde57e5d4de0aeb673838383604051620004059392919062001063565b60405180910390a1620004198282620008c4565b505050565b6000815111620004415760405163092d2fe560e41b815260040160405180910390fd5b600080516020620021378339815191526001600160a01b038316620004795760405163ddbadd5f60e01b815260040160405180910390fd5b6001600160a01b0383166000908152600182016020526040812054906001600160601b0382169003620004b257620004b28285620009de565b60005b8351811015620005f8576000848281518110620004d657620004d662000fd7565b6020908102919091018101516001600160e01b031981166000908152918690526040909120549091506001600160a01b03168015620005395760405163501e70c760e01b81526001600160e01b0319831660048201526024015b60405180910390fd5b6001600160e01b0319821660008181526020878152604080832080546001600160a01b03908116600160a01b6001600160601b038c16021782558c168085526001808c0185529285208054938401815585528385206008840401805463ffffffff60079095166004026101000a948502191660e08a901c94909402939093179092559390925287905281546001600160a01b03191617905583620005dd816200116a565b94505050508080620005ef9062001019565b915050620004b5565b5050505050565b6000815111620006225760405163092d2fe560e41b815260040160405180910390fd5b600080516020620021378339815191526001600160a01b0383166200065a5760405163ddbadd5f60e01b815260040160405180910390fd5b6001600160a01b0383166000908152600182016020526040812054906001600160601b03821690036200069357620006938285620009de565b60005b8351811015620005f8576000848281518110620006b757620006b762000fd7565b6020908102919091018101516001600160e01b031981166000908152918690526040909120549091506001600160a01b0390811690871681036200071b57604051631c04188b60e31b81526001600160e01b03198316600482015260240162000530565b6200072885828462000a31565b6001600160e01b0319821660008181526020878152604080832080546001600160a01b03908116600160a01b6001600160601b038c16021782558c168085526001808c0185529285208054938401815585528385206008840401805463ffffffff60079095166004026101000a948502191660e08a901c94909402939093179092559390925287905281546001600160a01b03191617905583620007cc816200116a565b94505050508080620007de9062001019565b91505062000696565b60008151116200080a5760405163092d2fe560e41b815260040160405180910390fd5b600080516020620021378339815191526001600160a01b038316156200084357604051631be65fe560e21b815260040160405180910390fd5b60005b8251811015620008be57600083828151811062000867576200086762000fd7565b6020908102919091018101516001600160e01b031981166000908152918590526040909120549091506001600160a01b0316620008a684828462000a31565b50508080620008b59062001019565b91505062000846565b50505050565b6001600160a01b038216620008f857805115620008f45760405163c21b1ab760e01b815260040160405180910390fd5b5050565b80516000036200091b57604051633011e86160e21b815260040160405180910390fd5b6001600160a01b03821630146200093757620009378262000d8d565b600080836001600160a01b0316836040516200095491906200119b565b600060405180830381855af49150503d806000811462000991576040519150601f19603f3d011682016040523d82523d6000602084013e62000996565b606091505b509150915081620008be57805115620009c5578060405162461bcd60e51b8152600401620005309190620011b9565b604051633a18f8dd60e01b815260040160405180910390fd5b620009e98162000d8d565b6002820180546001600160a01b0390921660008181526001948501602090815260408220860185905594840183559182529290200180546001600160a01b0319169091179055565b6001600160a01b03821662000a6557604051622902d360e91b81526001600160e01b03198216600482015260240162000530565b306001600160a01b0383160362000a9c5760405163069731c560e41b81526001600160e01b03198216600482015260240162000530565b6001600160e01b03198116600090815260208481526040808320546001600160a01b0386168452600180880190935290832054600160a01b9091046001600160601b0316929162000aed91620011d5565b905080821462000be6576001600160a01b0384166000908152600186016020526040812080548390811062000b265762000b2662000fd7565b600091825260208083206008830401546001600160a01b038916845260018a019091526040909220805460079092166004026101000a90920460e01b92508291908590811062000b7a5762000b7a62000fd7565b600091825260208083206008830401805463ffffffff60079094166004026101000a938402191660e09590951c929092029390931790556001600160e01b03199290921682528690526040902080546001600160a01b0316600160a01b6001600160601b038516021790555b6001600160a01b0384166000908152600186016020526040902080548062000c125762000c12620011ef565b60008281526020808220600860001990940193840401805463ffffffff600460078716026101000a0219169055919092556001600160e01b03198516825286905260408120819055819003620005f857600285015460009062000c7890600190620011d5565b6001600160a01b038616600090815260018089016020526040909120015490915080821462000d2e57600087600201838154811062000cbb5762000cbb62000fd7565b6000918252602090912001546002890180546001600160a01b03909216925082918490811062000cef5762000cef62000fd7565b600091825260208083209190910180546001600160a01b0319166001600160a01b03948516179055929091168152600189810190925260409020018190555b8660020180548062000d445762000d44620011ef565b60008281526020808220830160001990810180546001600160a01b03191690559092019092556001600160a01b0388168252600189810190915260408220015550505050505050565b803b80620008f457604051633c11a9c560e21b815260040160405180910390fd5b82805462000dbc9062001205565b90600052602060002090601f01602090048101928262000de0576000855562000e2b565b82601f1062000dfb57805160ff191683800117855562000e2b565b8280016001018555821562000e2b579182015b8281111562000e2b57825182559160200191906001019062000e0e565b5062000e3992915062000e3d565b5090565b5b8082111562000e39576000815560010162000e3e565b80516001600160a01b038116811462000e6c57600080fd5b919050565b634e487b7160e01b600052604160045260246000fd5b60005b8381101562000ea457818101518382015260200162000e8a565b83811115620008be5750506000910152565b600082601f83011262000ec857600080fd5b81516001600160401b038082111562000ee55762000ee562000e71565b604051601f8301601f19908116603f0116810190828211818310171562000f105762000f1062000e71565b8160405283815286602085880101111562000f2a57600080fd5b62000f3d84602083016020890162000e87565b9695505050505050565b6000806000806080858703121562000f5e57600080fd5b62000f698562000e54565b935062000f796020860162000e54565b60408601519093506001600160401b038082111562000f9757600080fd5b62000fa58883890162000eb6565b9350606087015191508082111562000fbc57600080fd5b5062000fcb8782880162000eb6565b91505092959194509250565b634e487b7160e01b600052603260045260246000fd5b634e487b7160e01b600052602160045260246000fd5b634e487b7160e01b600052601160045260246000fd5b6000600182016200102e576200102e62001003565b5060010190565b600081518084526200104f81602086016020860162000e87565b601f01601f19169290920160200192915050565b60006060808301818452808751808352608092508286019150828160051b8701016020808b0160005b848110156200113857898403607f19018652815180516001600160a01b03168552838101518986019060038110620010d457634e487b7160e01b600052602160045260246000fd5b868601526040918201519186018a905281519081905290840190600090898701905b80831015620011225783516001600160e01b0319168252928601926001929092019190860190620010f6565b509785019795505050908201906001016200108c565b50506001600160a01b038a169088015286810360408801526200115c818962001035565b9a9950505050505050505050565b60006001600160601b038281166002600160601b0319810162001191576200119162001003565b6001019392505050565b60008251620011af81846020870162000e87565b9190910192915050565b602081526000620011ce602083018462001035565b9392505050565b600082821015620011ea57620011ea62001003565b500390565b634e487b7160e01b600052603160045260246000fd5b600181811c908216806200121a57607f821691505b6020821081036200123b57634e487b7160e01b600052602260045260246000fd5b50919050565b610ee680620012516000396000f3fe6080604052600436106100225760003560e01c806354353f2f146100d457610029565b3661002957005b600080356001600160e01b0319168152600080516020610e66833981519152602081905260409091205481906001600160a01b0316806100b05760405162461bcd60e51b815260206004820181905260248201527f4469616d6f6e643a2046756e6374696f6e20646f6573206e6f7420657869737460448201526064015b60405180910390fd5b3660008037600080366000845af43d6000803e8080156100cf573d6000f35b3d6000fd5b3480156100e057600080fd5b506100e96100ff565b6040516100f69190610c81565b60405180910390f35b60606040518060600160405280602b8152602001610e86602b9139905090565b7fc8fcad8db84d3cc18b4c41d551ea0ee66dd599cde068d998e57d5e09332c132080546001600160a01b031981166001600160a01b03848116918217909355604051600080516020610e66833981519152939092169182907f8be0079c531659141344cd1fd0a4f28419497f9722a3daafe3b4186f6b6457e090600090a3505050565b60005b83518110156103285760008482815181106101c2576101c2610c9b565b6020026020010151602001519050600060028111156101e3576101e3610cb1565b8160028111156101f5576101f5610cb1565b036102435761023e85838151811061020f5761020f610c9b565b60200260200101516000015186848151811061022d5761022d610c9b565b602002602001015160400151610373565b610315565b600181600281111561025757610257610cb1565b036102a05761023e85838151811061027157610271610c9b565b60200260200101516000015186848151811061028f5761028f610c9b565b6020026020010151604001516104b3565b60028160028111156102b4576102b4610cb1565b036102fd5761023e8583815181106102ce576102ce610c9b565b6020026020010151600001518684815181106102ec576102ec610c9b565b6020026020010151604001516105fc565b60405162c5e5d760e31b815260040160405180910390fd5b508061032081610cdd565b9150506101a5565b507f8faa70878671ccd212d20771b795c50af8fd3ff6cf27f4bde57e5d4de0aeb67383838360405161035c93929190610cf6565b60405180910390a161036e82826106cd565b505050565b60008151116103955760405163092d2fe560e41b815260040160405180910390fd5b600080516020610e668339815191526001600160a01b0383166103cb5760405163ddbadd5f60e01b815260040160405180910390fd5b6001600160a01b0383166000908152600182016020526040812054906001600160601b03821690036104015761040182856107d9565b60005b83518110156104ac57600084828151811061042157610421610c9b565b6020908102919091018101516001600160e01b031981166000908152918690526040909120549091506001600160a01b0316801561047e5760405163501e70c760e01b81526001600160e01b0319831660048201526024016100a7565b61048a8583868a61082a565b8361049481610df6565b945050505080806104a490610cdd565b915050610404565b5050505050565b60008151116104d55760405163092d2fe560e41b815260040160405180910390fd5b600080516020610e668339815191526001600160a01b03831661050b5760405163ddbadd5f60e01b815260040160405180910390fd5b6001600160a01b0383166000908152600182016020526040812054906001600160601b03821690036105415761054182856107d9565b60005b83518110156104ac57600084828151811061056157610561610c9b565b6020908102919091018101516001600160e01b031981166000908152918690526040909120549091506001600160a01b0390811690871681036105c357604051631c04188b60e31b81526001600160e01b0319831660048201526024016100a7565b6105ce8582846108ca565b6105da8583868a61082a565b836105e481610df6565b945050505080806105f490610cdd565b915050610544565b600081511161061e5760405163092d2fe560e41b815260040160405180910390fd5b600080516020610e668339815191526001600160a01b0383161561065557604051631be65fe560e21b815260040160405180910390fd5b60005b82518110156106c757600083828151811061067557610675610c9b565b6020908102919091018101516001600160e01b031981166000908152918590526040909120549091506001600160a01b03166106b28482846108ca565b505080806106bf90610cdd565b915050610658565b50505050565b6001600160a01b0382166106ff578051156106fb5760405163c21b1ab760e01b815260040160405180910390fd5b5050565b805160000361072157604051633011e86160e21b815260040160405180910390fd5b6001600160a01b038216301461073a5761073a82610c09565b600080836001600160a01b0316836040516107559190610e1c565b600060405180830381855af49150503d8060008114610790576040519150601f19603f3d011682016040523d82523d6000602084013e610795565b606091505b5091509150816106c7578051156107c0578060405162461bcd60e51b81526004016100a79190610c81565b604051633a18f8dd60e01b815260040160405180910390fd5b6107e281610c09565b6002820180546001600160a01b0390921660008181526001948501602090815260408220860185905594840183559182529290200180546001600160a01b0319169091179055565b6001600160e01b0319831660008181526020868152604080832080546001600160601b03909716600160a01b026001600160a01b0397881617815594909516808352600180890183529583208054968701815583528183206008870401805460e09890981c60046007909816979097026101000a96870263ffffffff9097021990971695909517909555529290915281546001600160a01b031916179055565b6001600160a01b0382166108fc57604051622902d360e91b81526001600160e01b0319821660048201526024016100a7565b306001600160a01b038316036109315760405163069731c560e41b81526001600160e01b0319821660048201526024016100a7565b6001600160e01b03198116600090815260208481526040808320546001600160a01b0386168452600180880190935290832054600160a01b9091046001600160601b0316929161098091610e38565b9050808214610a72576001600160a01b038416600090815260018601602052604081208054839081106109b5576109b5610c9b565b600091825260208083206008830401546001600160a01b038916845260018a019091526040909220805460079092166004026101000a90920460e01b925082919085908110610a0657610a06610c9b565b600091825260208083206008830401805463ffffffff60079094166004026101000a938402191660e09590951c929092029390931790556001600160e01b03199290921682528690526040902080546001600160a01b0316600160a01b6001600160601b038516021790555b6001600160a01b03841660009081526001860160205260409020805480610a9b57610a9b610e4f565b60008281526020808220600860001990940193840401805463ffffffff600460078716026101000a0219169055919092556001600160e01b031985168252869052604081208190558190036104ac576002850154600090610afe90600190610e38565b6001600160a01b0386166000908152600180890160205260409091200154909150808214610bad576000876002018381548110610b3d57610b3d610c9b565b6000918252602090912001546002890180546001600160a01b039092169250829184908110610b6e57610b6e610c9b565b600091825260208083209190910180546001600160a01b0319166001600160a01b03948516179055929091168152600189810190925260409020018190555b86600201805480610bc057610bc0610e4f565b60008281526020808220830160001990810180546001600160a01b03191690559092019092556001600160a01b0388168252600189810190915260408220015550505050505050565b803b806106fb57604051633c11a9c560e21b815260040160405180910390fd5b60005b83811015610c44578181015183820152602001610c2c565b838111156106c75750506000910152565b60008151808452610c6d816020860160208601610c29565b601f01601f19169290920160200192915050565b602081526000610c946020830184610c55565b9392505050565b634e487b7160e01b600052603260045260246000fd5b634e487b7160e01b600052602160045260246000fd5b634e487b7160e01b600052601160045260246000fd5b600060018201610cef57610cef610cc7565b5060010190565b60006060808301818452808751808352608092508286019150828160051b8701016020808b0160005b84811015610dc657898403607f19018652815180516001600160a01b03168552838101518986019060038110610d6557634e487b7160e01b600052602160045260246000fd5b868601526040918201519186018a905281519081905290840190600090898701905b80831015610db15783516001600160e01b0319168252928601926001929092019190860190610d87565b50978501979550505090820190600101610d1f565b50506001600160a01b038a16908801528681036040880152610de88189610c55565b9a9950505050505050505050565b60006001600160601b03808316818103610e1257610e12610cc7565b6001019392505050565b60008251610e2e818460208701610c29565b9190910192915050565b600082821015610e4a57610e4a610cc7565b500390565b634e487b7160e01b600052603160045260246000fdfec8fcad8db84d3cc18b4c41d551ea0ee66dd599cde068d998e57d5e09332c131c5448495320495320414e204558414d504c45204f4620414e20494d4d555441424c452046554e4354494f4ea2646970667358221220f6b4640d2fb50bee2af2f584946cb18b7151a89b50ae39631121aa3c4ff74a3664736f6c634300080d0033c8fcad8db84d3cc18b4c41d551ea0ee66dd599cde068d998e57d5e09332c131c",
    "linkReferences": {}
  },
  "methodIdentifiers": {
    "example()": "54353f2f"
  },
  "id": 0
}