{
  "_format": "hh-sol-artifact-1",
  "contractName": "Diamond",
  "sourceName": "contracts/Diamond.sol",
  "abi": [
    {
      "inputs": [
        {
          "internalType": "address",
          "name": "_contractOwner",
          "type": "address"
        },
        {
          "internalType": "address",
          "name": "_diamondCutFacet",
          "type": "address"
        },
        {
          "internalType": "string",
          "name": "name",
          "type": "string"
        },
        {
          "internalType": "string",
          "name": "symbol",
          "type": "string"
        }
      ],
      "stateMutability": "payable",
      "type": "constructor"
    },
    {
      "inputs": [],
      "name": "EmptyCalldata",
      "type": "error"
    },
    {
      "inputs": [
        {
          "internalType": "bytes4",
          "name": "selector",
          "type": "bytes4"
        }
      ],
      "name": "ImmutableFunction",
      "type": "error"
    },
    {
      "inputs": [],
      "name": "InValidFacetCutAction",
      "type": "error"
    },
    {
      "inputs": [],
      "name": "InitCallFailed",
      "type": "error"
    },
    {
      "inputs": [],
      "name": "MustBeZeroAddress",
      "type": "error"
    },
    {
      "inputs": [],
      "name": "NoCode",
      "type": "error"
    },
    {
      "inputs": [],
      "name": "NoSelectorsInFacet",
      "type": "error"
    },
    {
      "inputs": [],
      "name": "NoZeroAddress",
      "type": "error"
    },
    {
      "inputs": [],
      "name": "NonEmptyCalldata",
      "type": "error"
    },
    {
      "inputs": [
        {
          "internalType": "bytes4",
          "name": "selector",
          "type": "bytes4"
        }
      ],
      "name": "NonExistentSelector",
      "type": "error"
    },
    {
      "inputs": [
        {
          "internalType": "bytes4",
          "name": "selector",
          "type": "bytes4"
        }
      ],
      "name": "SameSelectorReplacement",
      "type": "error"
    },
    {
      "inputs": [
        {
          "internalType": "bytes4",
          "name": "selector",
          "type": "bytes4"
        }
      ],
      "name": "SelectorExists",
      "type": "error"
    },
    {
      "stateMutability": "payable",
      "type": "fallback"
    },
    {
      "inputs": [],
      "name": "example",
      "outputs": [
        {
          "internalType": "string",
          "name": "",
          "type": "string"
        }
      ],
      "stateMutability": "pure",
      "type": "function"
    },
    {
      "stateMutability": "payable",
      "type": "receive"
    }
  ],
  "bytecode": "0x60806040526040516200451b3803806200451b833981810160405281019062000029919062001d2d565b6200003f84620002e560201b620001d11760201c565b6000600167ffffffffffffffff81111562000083577f4e487b7100000000000000000000000000000000000000000000000000000000600052604160045260246000fd5b604051908082528060200260200182016040528015620000c057816020015b620000ac62001b84565b815260200190600190039081620000a25790505b5090506000600167ffffffffffffffff81111562000107577f4e487b7100000000000000000000000000000000000000000000000000000000600052604160045260246000fd5b604051908082528060200260200182016040528015620001365781602001602082028036833780820191505090505b509050631f931c1c60e01b816000815181106200017c577f4e487b7100000000000000000000000000000000000000000000000000000000600052603260045260246000fd5b60200260200101907bffffffffffffffffffffffffffffffffffffffffffffffffffffffff191690817bffffffffffffffffffffffffffffffffffffffffffffffffffffffff19168152505060405180606001604052808673ffffffffffffffffffffffffffffffffffffffff168152602001600060028111156200022a577f4e487b7100000000000000000000000000000000000000000000000000000000600052602160045260246000fd5b815260200182815250826000815181106200026e577f4e487b7100000000000000000000000000000000000000000000000000000000600052603260045260246000fd5b6020026020010181905250620002a182600060405180602001604052806000815250620003c460201b620002a81760201c565b8360006003019080519060200190620002bc92919062001bf4565b508260006004019080519060200190620002d892919062001bf4565b5050505050505062002511565b6000620002f76200081460201b60201c565b905060008160040160009054906101000a900473ffffffffffffffffffffffffffffffffffffffff169050828260040160006101000a81548173ffffffffffffffffffffffffffffffffffffffff021916908373ffffffffffffffffffffffffffffffffffffffff1602179055508273ffffffffffffffffffffffffffffffffffffffff168173ffffffffffffffffffffffffffffffffffffffff167f8be0079c531659141344cd1fd0a4f28419497f9722a3daafe3b4186f6b6457e060405160405180910390a3505050565b60005b8351811015620007bf5760008482815181106200040d577f4e487b7100000000000000000000000000000000000000000000000000000000600052603260045260246000fd5b60200260200101516020015190506000600281111562000456577f4e487b7100000000000000000000000000000000000000000000000000000000600052602160045260246000fd5b81600281111562000490577f4e487b7100000000000000000000000000000000000000000000000000000000600052602160045260246000fd5b1415620005395762000533858381518110620004d5577f4e487b7100000000000000000000000000000000000000000000000000000000600052603260045260246000fd5b6020026020010151600001518684815181106200051b577f4e487b7100000000000000000000000000000000000000000000000000000000600052603260045260246000fd5b6020026020010151604001516200084160201b60201c565b620007a8565b6001600281111562000574577f4e487b7100000000000000000000000000000000000000000000000000000000600052602160045260246000fd5b816002811115620005ae577f4e487b7100000000000000000000000000000000000000000000000000000000600052602160045260246000fd5b1415620006575762000651858381518110620005f3577f4e487b7100000000000000000000000000000000000000000000000000000000600052603260045260246000fd5b60200260200101516000015186848151811062000639577f4e487b7100000000000000000000000000000000000000000000000000000000600052603260045260246000fd5b60200260200101516040015162000af560201b60201c565b620007a7565b60028081111562000691577f4e487b7100000000000000000000000000000000000000000000000000000000600052602160045260246000fd5b816002811115620006cb577f4e487b7100000000000000000000000000000000000000000000000000000000600052602160045260246000fd5b141562000774576200076e85838151811062000710577f4e487b7100000000000000000000000000000000000000000000000000000000600052603260045260246000fd5b60200260200101516000015186848151811062000756577f4e487b7100000000000000000000000000000000000000000000000000000000600052603260045260246000fd5b60200260200101516040015162000dbc60201b60201c565b620007a6565b6040517f062f2eb800000000000000000000000000000000000000000000000000000000815260040160405180910390fd5b5b5b508080620007b6906200238b565b915050620003c7565b507f8faa70878671ccd212d20771b795c50af8fd3ff6cf27f4bde57e5d4de0aeb673838383604051620007f59392919062002063565b60405180910390a16200080f828262000f7260201b60201c565b505050565b6000807fc8fcad8db84d3cc18b4c41d551ea0ee66dd599cde068d998e57d5e09332c131c90508091505090565b60008151116200087d576040517f92d2fe5000000000000000000000000000000000000000000000000000000000815260040160405180910390fd5b60006200088f6200081460201b60201c565b9050600073ffffffffffffffffffffffffffffffffffffffff168373ffffffffffffffffffffffffffffffffffffffff161415620008f9576040517fddbadd5f00000000000000000000000000000000000000000000000000000000815260040160405180910390fd5b60008160010160008573ffffffffffffffffffffffffffffffffffffffff1673ffffffffffffffffffffffffffffffffffffffff1681526020019081526020016000206000018054905090506000816bffffffffffffffffffffffff16141562000970576200096f82856200116860201b60201c565b5b60005b835181101562000aee576000848281518110620009b9577f4e487b7100000000000000000000000000000000000000000000000000000000600052603260045260246000fd5b602002602001015190506000846000016000837bffffffffffffffffffffffffffffffffffffffffffffffffffffffff19167bffffffffffffffffffffffffffffffffffffffffffffffffffffffff1916815260200190815260200160002060000160009054906101000a900473ffffffffffffffffffffffffffffffffffffffff169050600073ffffffffffffffffffffffffffffffffffffffff168173ffffffffffffffffffffffffffffffffffffffff161462000ab257816040517f501e70c700000000000000000000000000000000000000000000000000000000815260040162000aa99190620020ae565b60405180910390fd5b62000ac68583868a6200123260201b60201c565b838062000ad390620023d9565b9450505050808062000ae5906200238b565b91505062000973565b5050505050565b600081511162000b31576040517f92d2fe5000000000000000000000000000000000000000000000000000000000815260040160405180910390fd5b600062000b436200081460201b60201c565b9050600073ffffffffffffffffffffffffffffffffffffffff168373ffffffffffffffffffffffffffffffffffffffff16141562000bad576040517fddbadd5f00000000000000000000000000000000000000000000000000000000815260040160405180910390fd5b60008160010160008573ffffffffffffffffffffffffffffffffffffffff1673ffffffffffffffffffffffffffffffffffffffff1681526020019081526020016000206000018054905090506000816bffffffffffffffffffffffff16141562000c245762000c2382856200116860201b60201c565b5b60005b835181101562000db557600084828151811062000c6d577f4e487b7100000000000000000000000000000000000000000000000000000000600052603260045260246000fd5b602002602001015190506000846000016000837bffffffffffffffffffffffffffffffffffffffffffffffffffffffff19167bffffffffffffffffffffffffffffffffffffffffffffffffffffffff1916815260200190815260200160002060000160009054906101000a900473ffffffffffffffffffffffffffffffffffffffff1690508673ffffffffffffffffffffffffffffffffffffffff168173ffffffffffffffffffffffffffffffffffffffff16141562000d6657816040517fe020c45800000000000000000000000000000000000000000000000000000000815260040162000d5d9190620020ae565b60405180910390fd5b62000d79858284620013df60201b60201c565b62000d8d8583868a6200123260201b60201c565b838062000d9a90620023d9565b9450505050808062000dac906200238b565b91505062000c27565b5050505050565b600081511162000df8576040517f92d2fe5000000000000000000000000000000000000000000000000000000000815260040160405180910390fd5b600062000e0a6200081460201b60201c565b9050600073ffffffffffffffffffffffffffffffffffffffff168373ffffffffffffffffffffffffffffffffffffffff161462000e73576040517f6f997f9400000000000000000000000000000000000000000000000000000000815260040160405180910390fd5b60005b825181101562000f6c57600083828151811062000ebc577f4e487b7100000000000000000000000000000000000000000000000000000000600052603260045260246000fd5b602002602001015190506000836000016000837bffffffffffffffffffffffffffffffffffffffffffffffffffffffff19167bffffffffffffffffffffffffffffffffffffffffffffffffffffffff1916815260200190815260200160002060000160009054906101000a900473ffffffffffffffffffffffffffffffffffffffff16905062000f54848284620013df60201b60201c565b5050808062000f63906200238b565b91505062000e76565b50505050565b600073ffffffffffffffffffffffffffffffffffffffff168273ffffffffffffffffffffffffffffffffffffffff16141562000feb5760008151111562000fe5576040517fc21b1ab700000000000000000000000000000000000000000000000000000000815260040160405180910390fd5b62001164565b60008151141562001028576040517fc047a18400000000000000000000000000000000000000000000000000000000815260040160405180910390fd5b3073ffffffffffffffffffffffffffffffffffffffff168273ffffffffffffffffffffffffffffffffffffffff16146200106e576200106d8262001b3f60201b60201c565b5b6000808373ffffffffffffffffffffffffffffffffffffffff16836040516200109891906200204a565b600060405180830381855af49150503d8060008114620010d5576040519150601f19603f3d011682016040523d82523d6000602084013e620010da565b606091505b50915091508162001161576000815111156200112f57806040517f08c379a0000000000000000000000000000000000000000000000000000000008152600401620011269190620020cb565b60405180910390fd5b6040517f3a18f8dd00000000000000000000000000000000000000000000000000000000815260040160405180910390fd5b50505b5050565b620011798162001b3f60201b60201c565b81600201805490508260010160008373ffffffffffffffffffffffffffffffffffffffff1673ffffffffffffffffffffffffffffffffffffffff1681526020019081526020016000206001018190555081600201819080600181540180825580915050600190039060005260206000200160009091909190916101000a81548173ffffffffffffffffffffffffffffffffffffffff021916908373ffffffffffffffffffffffffffffffffffffffff1602179055505050565b81846000016000857bffffffffffffffffffffffffffffffffffffffffffffffffffffffff19167bffffffffffffffffffffffffffffffffffffffffffffffffffffffff1916815260200190815260200160002060000160146101000a8154816bffffffffffffffffffffffff02191690836bffffffffffffffffffffffff1602179055508360010160008273ffffffffffffffffffffffffffffffffffffffff1673ffffffffffffffffffffffffffffffffffffffff1681526020019081526020016000206000018390806001815401808255809150506001900390600052602060002090600891828204019190066004029091909190916101000a81548163ffffffff021916908360e01c021790555080846000016000857bffffffffffffffffffffffffffffffffffffffffffffffffffffffff19167bffffffffffffffffffffffffffffffffffffffffffffffffffffffff1916815260200190815260200160002060000160006101000a81548173ffffffffffffffffffffffffffffffffffffffff021916908373ffffffffffffffffffffffffffffffffffffffff16021790555050505050565b600073ffffffffffffffffffffffffffffffffffffffff168273ffffffffffffffffffffffffffffffffffffffff1614156200145457806040517f5205a6000000000000000000000000000000000000000000000000000000000081526004016200144b9190620020ae565b60405180910390fd5b3073ffffffffffffffffffffffffffffffffffffffff168273ffffffffffffffffffffffffffffffffffffffff161415620014c857806040517f69731c50000000000000000000000000000000000000000000000000000000008152600401620014bf9190620020ae565b60405180910390fd5b6000836000016000837bffffffffffffffffffffffffffffffffffffffffffffffffffffffff19167bffffffffffffffffffffffffffffffffffffffffffffffffffffffff1916815260200190815260200160002060000160149054906101000a90046bffffffffffffffffffffffff166bffffffffffffffffffffffff169050600060018560010160008673ffffffffffffffffffffffffffffffffffffffff1673ffffffffffffffffffffffffffffffffffffffff16815260200190815260200160002060000180549050620015a1919062002203565b9050808214620017845760008560010160008673ffffffffffffffffffffffffffffffffffffffff1673ffffffffffffffffffffffffffffffffffffffff16815260200190815260200160002060000182815481106200162a577f4e487b7100000000000000000000000000000000000000000000000000000000600052603260045260246000fd5b90600052602060002090600891828204019190066004029054906101000a900460e01b9050808660010160008773ffffffffffffffffffffffffffffffffffffffff1673ffffffffffffffffffffffffffffffffffffffff1681526020019081526020016000206000018481548110620016cd577f4e487b7100000000000000000000000000000000000000000000000000000000600052603260045260246000fd5b90600052602060002090600891828204019190066004026101000a81548163ffffffff021916908360e01c021790555082866000016000837bffffffffffffffffffffffffffffffffffffffffffffffffffffffff19167bffffffffffffffffffffffffffffffffffffffffffffffffffffffff1916815260200190815260200160002060000160146101000a8154816bffffffffffffffffffffffff02191690836bffffffffffffffffffffffff160217905550505b8460010160008573ffffffffffffffffffffffffffffffffffffffff1673ffffffffffffffffffffffffffffffffffffffff168152602001908152602001600020600001805480620017ff577f4e487b7100000000000000000000000000000000000000000000000000000000600052603160045260246000fd5b60019003818190600052602060002090600891828204019190066004026101000a81549063ffffffff02191690559055846000016000847bffffffffffffffffffffffffffffffffffffffffffffffffffffffff19167bffffffffffffffffffffffffffffffffffffffffffffffffffffffff19168152602001908152602001600020600080820160006101000a81549073ffffffffffffffffffffffffffffffffffffffff02191690556000820160146101000a8154906bffffffffffffffffffffffff02191690555050600081141562001b3857600060018660020180549050620018ed919062002203565b905060008660010160008773ffffffffffffffffffffffffffffffffffffffff1673ffffffffffffffffffffffffffffffffffffffff16815260200190815260200160002060010154905081811462001a7d5760008760020183815481106200197f577f4e487b7100000000000000000000000000000000000000000000000000000000600052603260045260246000fd5b9060005260206000200160009054906101000a900473ffffffffffffffffffffffffffffffffffffffff16905080886002018381548110620019ea577f4e487b7100000000000000000000000000000000000000000000000000000000600052603260045260246000fd5b9060005260206000200160006101000a81548173ffffffffffffffffffffffffffffffffffffffff021916908373ffffffffffffffffffffffffffffffffffffffff160217905550818860010160008373ffffffffffffffffffffffffffffffffffffffff1673ffffffffffffffffffffffffffffffffffffffff16815260200190815260200160002060010181905550505b8660020180548062001ab8577f4e487b7100000000000000000000000000000000000000000000000000000000600052603160045260246000fd5b6001900381819060005260206000200160006101000a81549073ffffffffffffffffffffffffffffffffffffffff021916905590558660010160008773ffffffffffffffffffffffffffffffffffffffff1673ffffffffffffffffffffffffffffffffffffffff1681526020019081526020016000206001016000905550505b5050505050565b6000813b90506000811162001b80576040517ff046a71400000000000000000000000000000000000000000000000000000000815260040160405180910390fd5b5050565b6040518060600160405280600073ffffffffffffffffffffffffffffffffffffffff1681526020016000600281111562001be7577f4e487b7100000000000000000000000000000000000000000000000000000000600052602160045260246000fd5b8152602001606081525090565b82805462001c02906200231f565b90600052602060002090601f01602090048101928262001c26576000855562001c72565b82601f1062001c4157805160ff191683800117855562001c72565b8280016001018555821562001c72579182015b8281111562001c7157825182559160200191906001019062001c54565b5b50905062001c81919062001c85565b5090565b5b8082111562001ca057600081600090555060010162001c86565b5090565b600062001cbb62001cb58462002118565b620020ef565b90508281526020810184848401111562001cd457600080fd5b62001ce1848285620022e9565b509392505050565b60008151905062001cfa81620024f7565b92915050565b600082601f83011262001d1257600080fd5b815162001d2484826020860162001ca4565b91505092915050565b6000806000806080858703121562001d4457600080fd5b600062001d548782880162001ce9565b945050602062001d678782880162001ce9565b935050604085015167ffffffffffffffff81111562001d8557600080fd5b62001d938782880162001d00565b925050606085015167ffffffffffffffff81111562001db157600080fd5b62001dbf8782880162001d00565b91505092959194509250565b600062001dd9838362001f08565b60208301905092915050565b600062001df3838362001ff4565b905092915050565b62001e06816200223e565b82525050565b62001e17816200223e565b82525050565b600062001e2a826200216e565b62001e368185620021b4565b935062001e43836200214e565b8060005b8381101562001e7a57815162001e5e888262001dcb565b975062001e6b836200219a565b92505060018101905062001e47565b5085935050505092915050565b600062001e948262002179565b62001ea08185620021c5565b93508360208202850162001eb4856200215e565b8060005b8581101562001ef6578484038952815162001ed4858262001de5565b945062001ee183620021a7565b925060208a0199505060018101905062001eb8565b50829750879550505050505092915050565b62001f138162002252565b82525050565b62001f248162002252565b82525050565b600062001f378262002184565b62001f438185620021d6565b935062001f55818560208601620022e9565b62001f6081620024cf565b840191505092915050565b600062001f788262002184565b62001f848185620021e7565b935062001f96818560208601620022e9565b80840191505092915050565b62001fad81620022d5565b82525050565b600062001fc0826200218f565b62001fcc8185620021f2565b935062001fde818560208601620022e9565b62001fe981620024cf565b840191505092915050565b60006060830160008301516200200e600086018262001dfb565b50602083015162002023602086018262001fa2565b50604083015184820360408601526200203d828262001e1d565b9150508091505092915050565b600062002058828462001f6b565b915081905092915050565b600060608201905081810360008301526200207f818662001e87565b905062002090602083018562001e0c565b8181036040830152620020a4818462001f2a565b9050949350505050565b6000602082019050620020c5600083018462001f19565b92915050565b60006020820190508181036000830152620020e7818462001fb3565b905092915050565b6000620020fb6200210e565b905062002109828262002355565b919050565b6000604051905090565b600067ffffffffffffffff821115620021365762002135620024a0565b5b6200214182620024cf565b9050602081019050919050565b6000819050602082019050919050565b6000819050602082019050919050565b600081519050919050565b600081519050919050565b600081519050919050565b600081519050919050565b6000602082019050919050565b6000602082019050919050565b600082825260208201905092915050565b600082825260208201905092915050565b600082825260208201905092915050565b600081905092915050565b600082825260208201905092915050565b60006200221082620022b3565b91506200221d83620022b3565b92508282101562002233576200223262002413565b5b828203905092915050565b60006200224b8262002293565b9050919050565b60007fffffffff0000000000000000000000000000000000000000000000000000000082169050919050565b60008190506200228e82620024e0565b919050565b600073ffffffffffffffffffffffffffffffffffffffff82169050919050565b6000819050919050565b60006bffffffffffffffffffffffff82169050919050565b6000620022e2826200227e565b9050919050565b60005b8381101562002309578082015181840152602081019050620022ec565b8381111562002319576000848401525b50505050565b600060028204905060018216806200233857607f821691505b602082108114156200234f576200234e62002471565b5b50919050565b6200236082620024cf565b810181811067ffffffffffffffff82111715620023825762002381620024a0565b5b80604052505050565b60006200239882620022b3565b91507fffffffffffffffffffffffffffffffffffffffffffffffffffffffffffffffff821415620023ce57620023cd62002413565b5b600182019050919050565b6000620023e682620022bd565b91506bffffffffffffffffffffffff82141562002408576200240762002413565b5b600182019050919050565b7f4e487b7100000000000000000000000000000000000000000000000000000000600052601160045260246000fd5b7f4e487b7100000000000000000000000000000000000000000000000000000000600052602160045260246000fd5b7f4e487b7100000000000000000000000000000000000000000000000000000000600052602260045260246000fd5b7f4e487b7100000000000000000000000000000000000000000000000000000000600052604160045260246000fd5b6000601f19601f8301169050919050565b60038110620024f457620024f362002442565b5b50565b62002502816200223e565b81146200250e57600080fd5b50565b611ffa80620025216000396000f3fe6080604052600436106100225760003560e01c806354353f2f1461018657610029565b3661002957005b6000807fc8fcad8db84d3cc18b4c41d551ea0ee66dd599cde068d998e57d5e09332c131c9050809150600082600001600080357fffffffff00000000000000000000000000000000000000000000000000000000167bffffffffffffffffffffffffffffffffffffffffffffffffffffffff19167bffffffffffffffffffffffffffffffffffffffffffffffffffffffff1916815260200190815260200160002060000160009054906101000a900473ffffffffffffffffffffffffffffffffffffffff169050600073ffffffffffffffffffffffffffffffffffffffff168173ffffffffffffffffffffffffffffffffffffffff161415610160576040517f08c379a000000000000000000000000000000000000000000000000000000000815260040161015790611c8e565b60405180910390fd5b3660008037600080366000845af43d6000803e8060008114610181573d6000f35b3d6000fd5b34801561019257600080fd5b5061019b6101b1565b6040516101a89190611c6c565b60405180910390f35b60606040518060600160405280602b8152602001611f9a602b9139905090565b60006101db6106bf565b905060008160040160009054906101000a900473ffffffffffffffffffffffffffffffffffffffff169050828260040160006101000a81548173ffffffffffffffffffffffffffffffffffffffff021916908373ffffffffffffffffffffffffffffffffffffffff1602179055508273ffffffffffffffffffffffffffffffffffffffff168173ffffffffffffffffffffffffffffffffffffffff167f8be0079c531659141344cd1fd0a4f28419497f9722a3daafe3b4186f6b6457e060405160405180910390a3505050565b60005b83518110156106745760008482815181106102ef577f4e487b7100000000000000000000000000000000000000000000000000000000600052603260045260246000fd5b602002602001015160200151905060006002811115610337577f4e487b7100000000000000000000000000000000000000000000000000000000600052602160045260246000fd5b816002811115610370577f4e487b7100000000000000000000000000000000000000000000000000000000600052602160045260246000fd5b141561040d576104088583815181106103b2577f4e487b7100000000000000000000000000000000000000000000000000000000600052603260045260246000fd5b6020026020010151600001518684815181106103f7577f4e487b7100000000000000000000000000000000000000000000000000000000600052603260045260246000fd5b6020026020010151604001516106ec565b610660565b60016002811115610447577f4e487b7100000000000000000000000000000000000000000000000000000000600052602160045260246000fd5b816002811115610480577f4e487b7100000000000000000000000000000000000000000000000000000000600052602160045260246000fd5b141561051d576105188583815181106104c2577f4e487b7100000000000000000000000000000000000000000000000000000000600052603260045260246000fd5b602002602001015160000151868481518110610507577f4e487b7100000000000000000000000000000000000000000000000000000000600052603260045260246000fd5b60200260200101516040015161097b565b61065f565b600280811115610556577f4e487b7100000000000000000000000000000000000000000000000000000000600052602160045260246000fd5b81600281111561058f577f4e487b7100000000000000000000000000000000000000000000000000000000600052602160045260246000fd5b141561062c576106278583815181106105d1577f4e487b7100000000000000000000000000000000000000000000000000000000600052603260045260246000fd5b602002602001015160000151868481518110610616577f4e487b7100000000000000000000000000000000000000000000000000000000600052603260045260246000fd5b602002602001015160400151610c15565b61065e565b6040517f062f2eb800000000000000000000000000000000000000000000000000000000815260040160405180910390fd5b5b5b50808061066c90611e6f565b9150506102ab565b507f8faa70878671ccd212d20771b795c50af8fd3ff6cf27f4bde57e5d4de0aeb6738383836040516106a893929190611c0c565b60405180910390a16106ba8282610db4565b505050565b6000807fc8fcad8db84d3cc18b4c41d551ea0ee66dd599cde068d998e57d5e09332c131c90508091505090565b6000815111610727576040517f92d2fe5000000000000000000000000000000000000000000000000000000000815260040160405180910390fd5b60006107316106bf565b9050600073ffffffffffffffffffffffffffffffffffffffff168373ffffffffffffffffffffffffffffffffffffffff16141561079a576040517fddbadd5f00000000000000000000000000000000000000000000000000000000815260040160405180910390fd5b60008160010160008573ffffffffffffffffffffffffffffffffffffffff1673ffffffffffffffffffffffffffffffffffffffff1681526020019081526020016000206000018054905090506000816bffffffffffffffffffffffff161415610808576108078285610f95565b5b60005b835181101561097457600084828151811061084f577f4e487b7100000000000000000000000000000000000000000000000000000000600052603260045260246000fd5b602002602001015190506000846000016000837bffffffffffffffffffffffffffffffffffffffffffffffffffffffff19167bffffffffffffffffffffffffffffffffffffffffffffffffffffffff1916815260200190815260200160002060000160009054906101000a900473ffffffffffffffffffffffffffffffffffffffff169050600073ffffffffffffffffffffffffffffffffffffffff168173ffffffffffffffffffffffffffffffffffffffff161461094557816040517f501e70c700000000000000000000000000000000000000000000000000000000815260040161093c9190611c51565b60405180910390fd5b6109518583868a611057565b838061095c90611eb8565b9450505050808061096c90611e6f565b91505061080b565b5050505050565b60008151116109b6576040517f92d2fe5000000000000000000000000000000000000000000000000000000000815260040160405180910390fd5b60006109c06106bf565b9050600073ffffffffffffffffffffffffffffffffffffffff168373ffffffffffffffffffffffffffffffffffffffff161415610a29576040517fddbadd5f00000000000000000000000000000000000000000000000000000000815260040160405180910390fd5b60008160010160008573ffffffffffffffffffffffffffffffffffffffff1673ffffffffffffffffffffffffffffffffffffffff1681526020019081526020016000206000018054905090506000816bffffffffffffffffffffffff161415610a9757610a968285610f95565b5b60005b8351811015610c0e576000848281518110610ade577f4e487b7100000000000000000000000000000000000000000000000000000000600052603260045260246000fd5b602002602001015190506000846000016000837bffffffffffffffffffffffffffffffffffffffffffffffffffffffff19167bffffffffffffffffffffffffffffffffffffffffffffffffffffffff1916815260200190815260200160002060000160009054906101000a900473ffffffffffffffffffffffffffffffffffffffff1690508673ffffffffffffffffffffffffffffffffffffffff168173ffffffffffffffffffffffffffffffffffffffff161415610bd457816040517fe020c458000000000000000000000000000000000000000000000000000000008152600401610bcb9190611c51565b60405180910390fd5b610bdf858284611204565b610beb8583868a611057565b8380610bf690611eb8565b94505050508080610c0690611e6f565b915050610a9a565b5050505050565b6000815111610c50576040517f92d2fe5000000000000000000000000000000000000000000000000000000000815260040160405180910390fd5b6000610c5a6106bf565b9050600073ffffffffffffffffffffffffffffffffffffffff168373ffffffffffffffffffffffffffffffffffffffff1614610cc2576040517f6f997f9400000000000000000000000000000000000000000000000000000000815260040160405180910390fd5b60005b8251811015610dae576000838281518110610d09577f4e487b7100000000000000000000000000000000000000000000000000000000600052603260045260246000fd5b602002602001015190506000836000016000837bffffffffffffffffffffffffffffffffffffffffffffffffffffffff19167bffffffffffffffffffffffffffffffffffffffffffffffffffffffff1916815260200190815260200160002060000160009054906101000a900473ffffffffffffffffffffffffffffffffffffffff169050610d99848284611204565b50508080610da690611e6f565b915050610cc5565b50505050565b600073ffffffffffffffffffffffffffffffffffffffff168273ffffffffffffffffffffffffffffffffffffffff161415610e2a57600081511115610e25576040517fc21b1ab700000000000000000000000000000000000000000000000000000000815260040160405180910390fd5b610f91565b600081511415610e66576040517fc047a18400000000000000000000000000000000000000000000000000000000815260040160405180910390fd5b3073ffffffffffffffffffffffffffffffffffffffff168273ffffffffffffffffffffffffffffffffffffffff1614610ea357610ea282611951565b5b6000808373ffffffffffffffffffffffffffffffffffffffff1683604051610ecb9190611bf5565b600060405180830381855af49150503d8060008114610f06576040519150601f19603f3d011682016040523d82523d6000602084013e610f0b565b606091505b509150915081610f8e57600081511115610f5c57806040517f08c379a0000000000000000000000000000000000000000000000000000000008152600401610f539190611c6c565b60405180910390fd5b6040517f3a18f8dd00000000000000000000000000000000000000000000000000000000815260040160405180910390fd5b50505b5050565b610f9e81611951565b81600201805490508260010160008373ffffffffffffffffffffffffffffffffffffffff1673ffffffffffffffffffffffffffffffffffffffff1681526020019081526020016000206001018190555081600201819080600181540180825580915050600190039060005260206000200160009091909190916101000a81548173ffffffffffffffffffffffffffffffffffffffff021916908373ffffffffffffffffffffffffffffffffffffffff1602179055505050565b81846000016000857bffffffffffffffffffffffffffffffffffffffffffffffffffffffff19167bffffffffffffffffffffffffffffffffffffffffffffffffffffffff1916815260200190815260200160002060000160146101000a8154816bffffffffffffffffffffffff02191690836bffffffffffffffffffffffff1602179055508360010160008273ffffffffffffffffffffffffffffffffffffffff1673ffffffffffffffffffffffffffffffffffffffff1681526020019081526020016000206000018390806001815401808255809150506001900390600052602060002090600891828204019190066004029091909190916101000a81548163ffffffff021916908360e01c021790555080846000016000857bffffffffffffffffffffffffffffffffffffffffffffffffffffffff19167bffffffffffffffffffffffffffffffffffffffffffffffffffffffff1916815260200190815260200160002060000160006101000a81548173ffffffffffffffffffffffffffffffffffffffff021916908373ffffffffffffffffffffffffffffffffffffffff16021790555050505050565b600073ffffffffffffffffffffffffffffffffffffffff168273ffffffffffffffffffffffffffffffffffffffff16141561127657806040517f5205a60000000000000000000000000000000000000000000000000000000000815260040161126d9190611c51565b60405180910390fd5b3073ffffffffffffffffffffffffffffffffffffffff168273ffffffffffffffffffffffffffffffffffffffff1614156112e757806040517f69731c500000000000000000000000000000000000000000000000000000000081526004016112de9190611c51565b60405180910390fd5b6000836000016000837bffffffffffffffffffffffffffffffffffffffffffffffffffffffff19167bffffffffffffffffffffffffffffffffffffffffffffffffffffffff1916815260200190815260200160002060000160149054906101000a90046bffffffffffffffffffffffff166bffffffffffffffffffffffff169050600060018560010160008673ffffffffffffffffffffffffffffffffffffffff1673ffffffffffffffffffffffffffffffffffffffff168152602001908152602001600020600001805490506113be9190611d63565b905080821461159e5760008560010160008673ffffffffffffffffffffffffffffffffffffffff1673ffffffffffffffffffffffffffffffffffffffff1681526020019081526020016000206000018281548110611445577f4e487b7100000000000000000000000000000000000000000000000000000000600052603260045260246000fd5b90600052602060002090600891828204019190066004029054906101000a900460e01b9050808660010160008773ffffffffffffffffffffffffffffffffffffffff1673ffffffffffffffffffffffffffffffffffffffff16815260200190815260200160002060000184815481106114e7577f4e487b7100000000000000000000000000000000000000000000000000000000600052603260045260246000fd5b90600052602060002090600891828204019190066004026101000a81548163ffffffff021916908360e01c021790555082866000016000837bffffffffffffffffffffffffffffffffffffffffffffffffffffffff19167bffffffffffffffffffffffffffffffffffffffffffffffffffffffff1916815260200190815260200160002060000160146101000a8154816bffffffffffffffffffffffff02191690836bffffffffffffffffffffffff160217905550505b8460010160008573ffffffffffffffffffffffffffffffffffffffff1673ffffffffffffffffffffffffffffffffffffffff168152602001908152602001600020600001805480611618577f4e487b7100000000000000000000000000000000000000000000000000000000600052603160045260246000fd5b60019003818190600052602060002090600891828204019190066004026101000a81549063ffffffff02191690559055846000016000847bffffffffffffffffffffffffffffffffffffffffffffffffffffffff19167bffffffffffffffffffffffffffffffffffffffffffffffffffffffff19168152602001908152602001600020600080820160006101000a81549073ffffffffffffffffffffffffffffffffffffffff02191690556000820160146101000a8154906bffffffffffffffffffffffff02191690555050600081141561194a576000600186600201805490506117039190611d63565b905060008660010160008773ffffffffffffffffffffffffffffffffffffffff1673ffffffffffffffffffffffffffffffffffffffff168152602001908152602001600020600101549050818114611890576000876002018381548110611793577f4e487b7100000000000000000000000000000000000000000000000000000000600052603260045260246000fd5b9060005260206000200160009054906101000a900473ffffffffffffffffffffffffffffffffffffffff169050808860020183815481106117fd577f4e487b7100000000000000000000000000000000000000000000000000000000600052603260045260246000fd5b9060005260206000200160006101000a81548173ffffffffffffffffffffffffffffffffffffffff021916908373ffffffffffffffffffffffffffffffffffffffff160217905550818860010160008373ffffffffffffffffffffffffffffffffffffffff1673ffffffffffffffffffffffffffffffffffffffff16815260200190815260200160002060010181905550505b866002018054806118ca577f4e487b7100000000000000000000000000000000000000000000000000000000600052603160045260246000fd5b6001900381819060005260206000200160006101000a81549073ffffffffffffffffffffffffffffffffffffffff021916905590558660010160008773ffffffffffffffffffffffffffffffffffffffff1673ffffffffffffffffffffffffffffffffffffffff1681526020019081526020016000206001016000905550505b5050505050565b6000813b905060008111611991576040517ff046a71400000000000000000000000000000000000000000000000000000000815260040160405180910390fd5b5050565b60006119a18383611ab2565b60208301905092915050565b60006119b98383611ba5565b905092915050565b6119ca81611d97565b82525050565b6119d981611d97565b82525050565b60006119ea82611cce565b6119f48185611d14565b93506119ff83611cae565b8060005b83811015611a30578151611a178882611995565b9750611a2283611cfa565b925050600181019050611a03565b5085935050505092915050565b6000611a4882611cd9565b611a528185611d25565b935083602082028501611a6485611cbe565b8060005b85811015611aa05784840389528151611a8185826119ad565b9450611a8c83611d07565b925060208a01995050600181019050611a68565b50829750879550505050505092915050565b611abb81611da9565b82525050565b611aca81611da9565b82525050565b6000611adb82611ce4565b611ae58185611d36565b9350611af5818560208601611e3c565b611afe81611f4b565b840191505092915050565b6000611b1482611ce4565b611b1e8185611d47565b9350611b2e818560208601611e3c565b80840191505092915050565b611b4381611e2a565b82525050565b6000611b5482611cef565b611b5e8185611d52565b9350611b6e818560208601611e3c565b611b7781611f4b565b840191505092915050565b6000611b8f602083611d52565b9150611b9a82611f5c565b602082019050919050565b6000606083016000830151611bbd60008601826119c1565b506020830151611bd06020860182611b3a565b5060408301518482036040860152611be882826119df565b9150508091505092915050565b6000611c018284611b09565b915081905092915050565b60006060820190508181036000830152611c268186611a3d565b9050611c3560208301856119d0565b8181036040830152611c478184611ad0565b9050949350505050565b6000602082019050611c666000830184611ac1565b92915050565b60006020820190508181036000830152611c868184611b49565b905092915050565b60006020820190508181036000830152611ca781611b82565b9050919050565b6000819050602082019050919050565b6000819050602082019050919050565b600081519050919050565b600081519050919050565b600081519050919050565b600081519050919050565b6000602082019050919050565b6000602082019050919050565b600082825260208201905092915050565b600082825260208201905092915050565b600082825260208201905092915050565b600081905092915050565b600082825260208201905092915050565b6000611d6e82611e08565b9150611d7983611e08565b925082821015611d8c57611d8b611eed565b5b828203905092915050565b6000611da282611de8565b9050919050565b60007fffffffff0000000000000000000000000000000000000000000000000000000082169050919050565b6000819050611de382611f85565b919050565b600073ffffffffffffffffffffffffffffffffffffffff82169050919050565b6000819050919050565b60006bffffffffffffffffffffffff82169050919050565b6000611e3582611dd5565b9050919050565b60005b83811015611e5a578082015181840152602081019050611e3f565b83811115611e69576000848401525b50505050565b6000611e7a82611e08565b91507fffffffffffffffffffffffffffffffffffffffffffffffffffffffffffffffff821415611ead57611eac611eed565b5b600182019050919050565b6000611ec382611e12565b91506bffffffffffffffffffffffff821415611ee257611ee1611eed565b5b600182019050919050565b7f4e487b7100000000000000000000000000000000000000000000000000000000600052601160045260246000fd5b7f4e487b7100000000000000000000000000000000000000000000000000000000600052602160045260246000fd5b6000601f19601f8301169050919050565b7f4469616d6f6e643a2046756e6374696f6e20646f6573206e6f74206578697374600082015250565b60038110611f9657611f95611f1c565b5b5056fe5448495320495320414e204558414d504c45204f4620414e20494d4d555441424c452046554e4354494f4ea26469706673582212204459b3dd0b54aa0a1fbe0413c388bc3dfdb79b70ae022e6057aaba7e00eb571164736f6c63430008040033",
  "linkReferences": {},
  "deployedLinkReferences": {}
}